{
  "contractName": "Demo",
  "abi": [
    {
      "inputs": [],
      "stateMutability": "nonpayable",
      "type": "constructor"
    },
    {
      "anonymous": false,
      "inputs": [
        {
          "indexed": true,
          "internalType": "address",
          "name": "owner",
          "type": "address"
        },
        {
          "indexed": true,
          "internalType": "address",
          "name": "approved",
          "type": "address"
        },
        {
          "indexed": true,
          "internalType": "uint256",
          "name": "tokenId",
          "type": "uint256"
        }
      ],
      "name": "Approval",
      "type": "event"
    },
    {
      "anonymous": false,
      "inputs": [
        {
          "indexed": true,
          "internalType": "address",
          "name": "owner",
          "type": "address"
        },
        {
          "indexed": true,
          "internalType": "address",
          "name": "operator",
          "type": "address"
        },
        {
          "indexed": false,
          "internalType": "bool",
          "name": "approved",
          "type": "bool"
        }
      ],
      "name": "ApprovalForAll",
      "type": "event"
    },
    {
      "anonymous": false,
      "inputs": [
        {
          "indexed": true,
          "internalType": "address",
          "name": "from",
          "type": "address"
        },
        {
          "indexed": true,
          "internalType": "address",
          "name": "to",
          "type": "address"
        },
        {
          "indexed": true,
          "internalType": "uint256",
          "name": "tokenId",
          "type": "uint256"
        }
      ],
      "name": "Transfer",
      "type": "event"
    },
    {
      "inputs": [
        {
          "internalType": "address",
          "name": "to",
          "type": "address"
        },
        {
          "internalType": "uint256",
          "name": "tokenId",
          "type": "uint256"
        }
      ],
      "name": "approve",
      "outputs": [],
      "stateMutability": "nonpayable",
      "type": "function"
    },
    {
      "inputs": [
        {
          "internalType": "address",
          "name": "owner",
          "type": "address"
        }
      ],
      "name": "balanceOf",
      "outputs": [
        {
          "internalType": "uint256",
          "name": "",
          "type": "uint256"
        }
      ],
      "stateMutability": "view",
      "type": "function",
      "constant": true
    },
    {
      "inputs": [
        {
          "internalType": "uint256",
          "name": "tokenId",
          "type": "uint256"
        }
      ],
      "name": "getApproved",
      "outputs": [
        {
          "internalType": "address",
          "name": "",
          "type": "address"
        }
      ],
      "stateMutability": "view",
      "type": "function",
      "constant": true
    },
    {
      "inputs": [
        {
          "internalType": "address",
          "name": "owner",
          "type": "address"
        },
        {
          "internalType": "address",
          "name": "operator",
          "type": "address"
        }
      ],
      "name": "isApprovedForAll",
      "outputs": [
        {
          "internalType": "bool",
          "name": "",
          "type": "bool"
        }
      ],
      "stateMutability": "view",
      "type": "function",
      "constant": true
    },
    {
      "inputs": [],
      "name": "name",
      "outputs": [
        {
          "internalType": "string",
          "name": "",
          "type": "string"
        }
      ],
      "stateMutability": "view",
      "type": "function",
      "constant": true
    },
    {
      "inputs": [
        {
          "internalType": "uint256",
          "name": "tokenId",
          "type": "uint256"
        }
      ],
      "name": "ownerOf",
      "outputs": [
        {
          "internalType": "address",
          "name": "",
          "type": "address"
        }
      ],
      "stateMutability": "view",
      "type": "function",
      "constant": true
    },
    {
      "inputs": [
        {
          "internalType": "address",
          "name": "from",
          "type": "address"
        },
        {
          "internalType": "address",
          "name": "to",
          "type": "address"
        },
        {
          "internalType": "uint256",
          "name": "tokenId",
          "type": "uint256"
        }
      ],
      "name": "safeTransferFrom",
      "outputs": [],
      "stateMutability": "nonpayable",
      "type": "function"
    },
    {
      "inputs": [
        {
          "internalType": "address",
          "name": "from",
          "type": "address"
        },
        {
          "internalType": "address",
          "name": "to",
          "type": "address"
        },
        {
          "internalType": "uint256",
          "name": "tokenId",
          "type": "uint256"
        },
        {
          "internalType": "bytes",
          "name": "_data",
          "type": "bytes"
        }
      ],
      "name": "safeTransferFrom",
      "outputs": [],
      "stateMutability": "nonpayable",
      "type": "function"
    },
    {
      "inputs": [
        {
          "internalType": "address",
          "name": "operator",
          "type": "address"
        },
        {
          "internalType": "bool",
          "name": "approved",
          "type": "bool"
        }
      ],
      "name": "setApprovalForAll",
      "outputs": [],
      "stateMutability": "nonpayable",
      "type": "function"
    },
    {
      "inputs": [
        {
          "internalType": "bytes4",
          "name": "interfaceId",
          "type": "bytes4"
        }
      ],
      "name": "supportsInterface",
      "outputs": [
        {
          "internalType": "bool",
          "name": "",
          "type": "bool"
        }
      ],
      "stateMutability": "view",
      "type": "function",
      "constant": true
    },
    {
      "inputs": [],
      "name": "symbol",
      "outputs": [
        {
          "internalType": "string",
          "name": "",
          "type": "string"
        }
      ],
      "stateMutability": "view",
      "type": "function",
      "constant": true
    },
    {
      "inputs": [],
      "name": "tokenID_Counter",
      "outputs": [
        {
          "internalType": "uint256",
          "name": "_value",
          "type": "uint256"
        }
      ],
      "stateMutability": "view",
      "type": "function",
      "constant": true
    },
    {
      "inputs": [
        {
          "internalType": "uint256",
          "name": "tokenId",
          "type": "uint256"
        }
      ],
      "name": "tokenURI",
      "outputs": [
        {
          "internalType": "string",
          "name": "",
          "type": "string"
        }
      ],
      "stateMutability": "view",
      "type": "function",
      "constant": true
    },
    {
      "inputs": [
        {
          "internalType": "string",
          "name": "tokenURI",
          "type": "string"
        },
        {
          "internalType": "uint256",
          "name": "_price",
          "type": "uint256"
        },
        {
          "internalType": "string",
          "name": "_name",
          "type": "string"
        },
        {
          "internalType": "string",
          "name": "_category",
          "type": "string"
        }
      ],
      "name": "mint",
      "outputs": [],
      "stateMutability": "nonpayable",
      "type": "function"
    },
    {
      "inputs": [],
      "name": "total_nfts",
      "outputs": [
        {
          "internalType": "uint256",
          "name": "",
          "type": "uint256"
        }
      ],
      "stateMutability": "view",
      "type": "function",
      "constant": true
    },
    {
      "inputs": [
        {
          "internalType": "uint256",
          "name": "id",
          "type": "uint256"
        }
      ],
      "name": "check_id",
      "outputs": [
        {
          "internalType": "bool",
          "name": "",
          "type": "bool"
        }
      ],
      "stateMutability": "view",
      "type": "function",
      "constant": true
    },
    {
      "inputs": [
        {
          "internalType": "uint256",
          "name": "id",
          "type": "uint256"
        }
      ],
      "name": "get_name",
      "outputs": [
        {
          "internalType": "string",
          "name": "",
          "type": "string"
        }
      ],
      "stateMutability": "view",
      "type": "function",
      "constant": true
    },
    {
      "inputs": [
        {
          "internalType": "uint256",
          "name": "id",
          "type": "uint256"
        }
      ],
      "name": "get_price",
      "outputs": [
        {
          "internalType": "uint256",
          "name": "",
          "type": "uint256"
        }
      ],
      "stateMutability": "view",
      "type": "function",
      "constant": true
    },
    {
      "inputs": [
        {
          "internalType": "uint256",
          "name": "id",
          "type": "uint256"
        }
      ],
      "name": "get_owner",
      "outputs": [
        {
          "internalType": "address",
          "name": "",
          "type": "address"
        }
      ],
      "stateMutability": "view",
      "type": "function",
      "constant": true
    },
    {
      "inputs": [
        {
          "internalType": "uint256",
          "name": "id",
          "type": "uint256"
        }
      ],
      "name": "get_category",
      "outputs": [
        {
          "internalType": "string",
          "name": "",
          "type": "string"
        }
      ],
      "stateMutability": "view",
      "type": "function",
      "constant": true
    },
    {
      "inputs": [
        {
          "internalType": "address",
          "name": "from",
          "type": "address"
        },
        {
          "internalType": "uint256",
          "name": "id",
          "type": "uint256"
        }
      ],
      "name": "transferFrom",
      "outputs": [],
      "stateMutability": "payable",
      "type": "function",
      "payable": true
    },
    {
      "inputs": [
        {
          "internalType": "address",
          "name": "from",
          "type": "address"
        },
        {
          "internalType": "address",
          "name": "to",
          "type": "address"
        },
        {
          "internalType": "uint256",
          "name": "tokenId",
          "type": "uint256"
        }
      ],
      "name": "transferFrom",
      "outputs": [],
      "stateMutability": "nonpayable",
      "type": "function"
    }
  ],
  "bytecode": "0x60806040523480156200001157600080fd5b506040518060400160405280601c81526020017f46696e7665727365204361706974616c20526567756c6172204e4654000000008152506040518060400160405280600481526020017f4643524e00000000000000000000000000000000000000000000000000000000815250816000908051906020019062000096929190620000f9565b508060019080519060200190620000af929190620000f9565b50505033600860006101000a81548173ffffffffffffffffffffffffffffffffffffffff021916908373ffffffffffffffffffffffffffffffffffffffff1602179055506200020d565b8280546200010790620001d8565b90600052602060002090601f0160209004810192826200012b576000855562000177565b82601f106200014657805160ff191683800117855562000177565b8280016001018555821562000177579182015b828111156200017657825182559160200191906001019062000159565b5b5090506200018691906200018a565b5090565b5b80821115620001a55760008160009055506001016200018b565b5090565b7f4e487b7100000000000000000000000000000000000000000000000000000000600052602260045260246000fd5b60006002820490506001821680620001f157607f821691505b602082108103620002075762000206620001a9565b5b50919050565b6131d1806200021d6000396000f3fe6080604052600436106101355760003560e01c806372205875116100ab578063b88d4fde1161006f578063b88d4fde14610451578063c54eb3cd1461047a578063c87b56dd146104b7578063d93580ff146104f4578063e985e9c514610531578063f12ee1671461056e57610135565b8063722058751461035857806373912ce8146103955780637f0f543c146103c057806395d89b41146103fd578063a22cb4651461042857610135565b806323b872dd116100fd57806323b872dd1461022457806342842e0e1461024d5780635a1bcddb146102765780636270f7b8146102a15780636352211e146102de57806370a082311461031b57610135565b806301c6adc31461013a57806301ffc9a71461015657806306fdde0314610193578063081812fc146101be578063095ea7b3146101fb575b600080fd5b610154600480360381019061014f9190611f12565b610597565b005b34801561016257600080fd5b5061017d60048036038101906101789190611faa565b6105ed565b60405161018a9190611ff2565b60405180910390f35b34801561019f57600080fd5b506101a86106cf565b6040516101b591906120a6565b60405180910390f35b3480156101ca57600080fd5b506101e560048036038101906101e091906120c8565b610761565b6040516101f29190612104565b60405180910390f35b34801561020757600080fd5b50610222600480360381019061021d9190611f12565b6107e6565b005b34801561023057600080fd5b5061024b6004803603810190610246919061211f565b6108fd565b005b34801561025957600080fd5b50610274600480360381019061026f919061211f565b61095d565b005b34801561028257600080fd5b5061028b61097d565b6040516102989190612181565b60405180910390f35b3480156102ad57600080fd5b506102c860048036038101906102c391906120c8565b61098e565b6040516102d591906120a6565b60405180910390f35b3480156102ea57600080fd5b50610305600480360381019061030091906120c8565b610a36565b6040516103129190612104565b60405180910390f35b34801561032757600080fd5b50610342600480360381019061033d919061219c565b610ae7565b60405161034f9190612181565b60405180910390f35b34801561036457600080fd5b5061037f600480360381019061037a91906120c8565b610b9e565b60405161038c9190612104565b60405180910390f35b3480156103a157600080fd5b506103aa610bde565b6040516103b79190612181565b60405180910390f35b3480156103cc57600080fd5b506103e760048036038101906103e291906120c8565b610bea565b6040516103f491906120a6565b60405180910390f35b34801561040957600080fd5b50610412610c92565b60405161041f91906120a6565b60405180910390f35b34801561043457600080fd5b5061044f600480360381019061044a91906121f5565b610d24565b005b34801561045d57600080fd5b506104786004803603810190610473919061236a565b610d3a565b005b34801561048657600080fd5b506104a1600480360381019061049c91906120c8565b610d9c565b6040516104ae9190611ff2565b60405180910390f35b3480156104c357600080fd5b506104de60048036038101906104d991906120c8565b610dae565b6040516104eb91906120a6565b60405180910390f35b34801561050057600080fd5b5061051b600480360381019061051691906120c8565b610eff565b6040516105289190612181565b60405180910390f35b34801561053d57600080fd5b50610558600480360381019061055391906123ed565b610f1f565b6040516105659190611ff2565b60405180910390f35b34801561057a57600080fd5b50610595600480360381019061059091906124ce565b610fb3565b005b6105a28233836110e1565b8173ffffffffffffffffffffffffffffffffffffffff166108fc349081150290604051600060405180830381858888f193505050501580156105e8573d6000803e3d6000fd5b505050565b60007f80ac58cd000000000000000000000000000000000000000000000000000000007bffffffffffffffffffffffffffffffffffffffffffffffffffffffff1916827bffffffffffffffffffffffffffffffffffffffffffffffffffffffff191614806106b857507f5b5e139f000000000000000000000000000000000000000000000000000000007bffffffffffffffffffffffffffffffffffffffffffffffffffffffff1916827bffffffffffffffffffffffffffffffffffffffffffffffffffffffff1916145b806106c857506106c782611347565b5b9050919050565b6060600080546106de906125b8565b80601f016020809104026020016040519081016040528092919081815260200182805461070a906125b8565b80156107575780601f1061072c57610100808354040283529160200191610757565b820191906000526020600020905b81548152906001019060200180831161073a57829003601f168201915b5050505050905090565b600061076c826113b1565b6107ab576040517f08c379a00000000000000000000000000000000000000000000000000000000081526004016107a29061265b565b60405180910390fd5b6004600083815260200190815260200160002060009054906101000a900473ffffffffffffffffffffffffffffffffffffffff169050919050565b60006107f182610a36565b90508073ffffffffffffffffffffffffffffffffffffffff168373ffffffffffffffffffffffffffffffffffffffff1603610861576040517f08c379a0000000000000000000000000000000000000000000000000000000008152600401610858906126ed565b60405180910390fd5b8073ffffffffffffffffffffffffffffffffffffffff1661088061141d565b73ffffffffffffffffffffffffffffffffffffffff1614806108af57506108ae816108a961141d565b610f1f565b5b6108ee576040517f08c379a00000000000000000000000000000000000000000000000000000000081526004016108e59061277f565b60405180910390fd5b6108f88383611425565b505050565b61090e61090861141d565b826114de565b61094d576040517f08c379a000000000000000000000000000000000000000000000000000000000815260040161094490612811565b60405180910390fd5b6109588383836110e1565b505050565b61097883838360405180602001604052806000815250610d3a565b505050565b600061098960076115bc565b905090565b60606009600083815260200190815260200160002060020180546109b1906125b8565b80601f01602080910402602001604051908101604052809291908181526020018280546109dd906125b8565b8015610a2a5780601f106109ff57610100808354040283529160200191610a2a565b820191906000526020600020905b815481529060010190602001808311610a0d57829003601f168201915b50505050509050919050565b6000806002600084815260200190815260200160002060009054906101000a900473ffffffffffffffffffffffffffffffffffffffff169050600073ffffffffffffffffffffffffffffffffffffffff168173ffffffffffffffffffffffffffffffffffffffff1603610ade576040517f08c379a0000000000000000000000000000000000000000000000000000000008152600401610ad5906128a3565b60405180910390fd5b80915050919050565b60008073ffffffffffffffffffffffffffffffffffffffff168273ffffffffffffffffffffffffffffffffffffffff1603610b57576040517f08c379a0000000000000000000000000000000000000000000000000000000008152600401610b4e90612935565b60405180910390fd5b600360008373ffffffffffffffffffffffffffffffffffffffff1673ffffffffffffffffffffffffffffffffffffffff168152602001908152602001600020549050919050565b60006009600083815260200190815260200160002060040160009054906101000a900473ffffffffffffffffffffffffffffffffffffffff169050919050565b60078060000154905081565b6060600960008381526020019081526020016000206000018054610c0d906125b8565b80601f0160208091040260200160405190810160405280929190818152602001828054610c39906125b8565b8015610c865780601f10610c5b57610100808354040283529160200191610c86565b820191906000526020600020905b815481529060010190602001808311610c6957829003601f168201915b50505050509050919050565b606060018054610ca1906125b8565b80601f0160208091040260200160405190810160405280929190818152602001828054610ccd906125b8565b8015610d1a5780601f10610cef57610100808354040283529160200191610d1a565b820191906000526020600020905b815481529060010190602001808311610cfd57829003601f168201915b5050505050905090565b610d36610d2f61141d565b83836115ca565b5050565b610d4b610d4561141d565b836114de565b610d8a576040517f08c379a0000000000000000000000000000000000000000000000000000000008152600401610d8190612811565b60405180910390fd5b610d9684848484611736565b50505050565b6000610da7826113b1565b9050919050565b6060610db9826113b1565b610df8576040517f08c379a0000000000000000000000000000000000000000000000000000000008152600401610def906129c7565b60405180910390fd5b6000600660008481526020019081526020016000208054610e18906125b8565b80601f0160208091040260200160405190810160405280929190818152602001828054610e44906125b8565b8015610e915780601f10610e6657610100808354040283529160200191610e91565b820191906000526020600020905b815481529060010190602001808311610e7457829003601f168201915b505050505090506000610ea2611792565b90506000815103610eb7578192505050610efa565b600082511115610eec578082604051602001610ed4929190612a23565b60405160208183030381529060405292505050610efa565b610ef5846117a9565b925050505b919050565b600060096000838152602001908152602001600020600101549050919050565b6000600560008473ffffffffffffffffffffffffffffffffffffffff1673ffffffffffffffffffffffffffffffffffffffff16815260200190815260200160002060008373ffffffffffffffffffffffffffffffffffffffff1673ffffffffffffffffffffffffffffffffffffffff16815260200190815260200160002060009054906101000a900460ff16905092915050565b6000610fbf60076115bc565b9050610fcb6007611850565b610fd53382611866565b610fdf8186611a3f565b6040518060a001604052808481526020018581526020018381526020018681526020013373ffffffffffffffffffffffffffffffffffffffff1681525060096000838152602001908152602001600020600082015181600001908051906020019061104b929190611dc7565b50602082015181600101556040820151816002019080519060200190611072929190611dc7565b50606082015181600301908051906020019061108f929190611dc7565b5060808201518160040160006101000a81548173ffffffffffffffffffffffffffffffffffffffff021916908373ffffffffffffffffffffffffffffffffffffffff1602179055509050505050505050565b8273ffffffffffffffffffffffffffffffffffffffff1661110182610a36565b73ffffffffffffffffffffffffffffffffffffffff1614611157576040517f08c379a000000000000000000000000000000000000000000000000000000000815260040161114e90612ab9565b60405180910390fd5b600073ffffffffffffffffffffffffffffffffffffffff168273ffffffffffffffffffffffffffffffffffffffff16036111c6576040517f08c379a00000000000000000000000000000000000000000000000000000000081526004016111bd90612b4b565b60405180910390fd5b6111d1838383611ab3565b6111dc600082611425565b6001600360008573ffffffffffffffffffffffffffffffffffffffff1673ffffffffffffffffffffffffffffffffffffffff168152602001908152602001600020600082825461122c9190612b9a565b925050819055506001600360008473ffffffffffffffffffffffffffffffffffffffff1673ffffffffffffffffffffffffffffffffffffffff16815260200190815260200160002060008282546112839190612bce565b92505081905550816002600083815260200190815260200160002060006101000a81548173ffffffffffffffffffffffffffffffffffffffff021916908373ffffffffffffffffffffffffffffffffffffffff160217905550808273ffffffffffffffffffffffffffffffffffffffff168473ffffffffffffffffffffffffffffffffffffffff167fddf252ad1be2c89b69c2b068fc378daa952ba7f163c4a11628f55a4df523b3ef60405160405180910390a4611342838383611ab8565b505050565b60007f01ffc9a7000000000000000000000000000000000000000000000000000000007bffffffffffffffffffffffffffffffffffffffffffffffffffffffff1916827bffffffffffffffffffffffffffffffffffffffffffffffffffffffff1916149050919050565b60008073ffffffffffffffffffffffffffffffffffffffff166002600084815260200190815260200160002060009054906101000a900473ffffffffffffffffffffffffffffffffffffffff1673ffffffffffffffffffffffffffffffffffffffff1614159050919050565b600033905090565b816004600083815260200190815260200160002060006101000a81548173ffffffffffffffffffffffffffffffffffffffff021916908373ffffffffffffffffffffffffffffffffffffffff160217905550808273ffffffffffffffffffffffffffffffffffffffff1661149883610a36565b73ffffffffffffffffffffffffffffffffffffffff167f8c5be1e5ebec7d5bd14f71427d1e84f3dd0314c0f7b2291e5b200ac8c7c3b92560405160405180910390a45050565b60006114e9826113b1565b611528576040517f08c379a000000000000000000000000000000000000000000000000000000000815260040161151f90612c96565b60405180910390fd5b600061153383610a36565b90508073ffffffffffffffffffffffffffffffffffffffff168473ffffffffffffffffffffffffffffffffffffffff16148061157557506115748185610f1f565b5b806115b357508373ffffffffffffffffffffffffffffffffffffffff1661159b84610761565b73ffffffffffffffffffffffffffffffffffffffff16145b91505092915050565b600081600001549050919050565b8173ffffffffffffffffffffffffffffffffffffffff168373ffffffffffffffffffffffffffffffffffffffff1603611638576040517f08c379a000000000000000000000000000000000000000000000000000000000815260040161162f90612d02565b60405180910390fd5b80600560008573ffffffffffffffffffffffffffffffffffffffff1673ffffffffffffffffffffffffffffffffffffffff16815260200190815260200160002060008473ffffffffffffffffffffffffffffffffffffffff1673ffffffffffffffffffffffffffffffffffffffff16815260200190815260200160002060006101000a81548160ff0219169083151502179055508173ffffffffffffffffffffffffffffffffffffffff168373ffffffffffffffffffffffffffffffffffffffff167f17307eab39ab6107e8899845ad3d59bd9653f200f220920489ca2b5937696c31836040516117299190611ff2565b60405180910390a3505050565b6117418484846110e1565b61174d84848484611abd565b61178c576040517f08c379a000000000000000000000000000000000000000000000000000000000815260040161178390612d94565b60405180910390fd5b50505050565b606060405180602001604052806000815250905090565b60606117b4826113b1565b6117f3576040517f08c379a00000000000000000000000000000000000000000000000000000000081526004016117ea90612e26565b60405180910390fd5b60006117fd611792565b9050600081511161181d5760405180602001604052806000815250611848565b8061182784611c44565b604051602001611838929190612a23565b6040516020818303038152906040525b915050919050565b6001816000016000828254019250508190555050565b600073ffffffffffffffffffffffffffffffffffffffff168273ffffffffffffffffffffffffffffffffffffffff16036118d5576040517f08c379a00000000000000000000000000000000000000000000000000000000081526004016118cc90612e92565b60405180910390fd5b6118de816113b1565b1561191e576040517f08c379a000000000000000000000000000000000000000000000000000000000815260040161191590612efe565b60405180910390fd5b61192a60008383611ab3565b6001600360008473ffffffffffffffffffffffffffffffffffffffff1673ffffffffffffffffffffffffffffffffffffffff168152602001908152602001600020600082825461197a9190612bce565b92505081905550816002600083815260200190815260200160002060006101000a81548173ffffffffffffffffffffffffffffffffffffffff021916908373ffffffffffffffffffffffffffffffffffffffff160217905550808273ffffffffffffffffffffffffffffffffffffffff16600073ffffffffffffffffffffffffffffffffffffffff167fddf252ad1be2c89b69c2b068fc378daa952ba7f163c4a11628f55a4df523b3ef60405160405180910390a4611a3b60008383611ab8565b5050565b611a48826113b1565b611a87576040517f08c379a0000000000000000000000000000000000000000000000000000000008152600401611a7e90612f90565b60405180910390fd5b80600660008481526020019081526020016000209080519060200190611aae929190611dc7565b505050565b505050565b505050565b6000611ade8473ffffffffffffffffffffffffffffffffffffffff16611da4565b15611c37578373ffffffffffffffffffffffffffffffffffffffff1663150b7a02611b0761141d565b8786866040518563ffffffff1660e01b8152600401611b299493929190613005565b6020604051808303816000875af1925050508015611b6557506040513d601f19601f82011682018060405250810190611b629190613066565b60015b611be7573d8060008114611b95576040519150601f19603f3d011682016040523d82523d6000602084013e611b9a565b606091505b506000815103611bdf576040517f08c379a0000000000000000000000000000000000000000000000000000000008152600401611bd690612d94565b60405180910390fd5b805181602001fd5b63150b7a0260e01b7bffffffffffffffffffffffffffffffffffffffffffffffffffffffff1916817bffffffffffffffffffffffffffffffffffffffffffffffffffffffff191614915050611c3c565b600190505b949350505050565b606060008203611c8b576040518060400160405280600181526020017f30000000000000000000000000000000000000000000000000000000000000008152509050611d9f565b600082905060005b60008214611cbd578080611ca690613093565b915050600a82611cb6919061310a565b9150611c93565b60008167ffffffffffffffff811115611cd957611cd861223f565b5b6040519080825280601f01601f191660200182016040528015611d0b5781602001600182028036833780820191505090505b5090505b60008514611d9857600182611d249190612b9a565b9150600a85611d33919061313b565b6030611d3f9190612bce565b60f81b818381518110611d5557611d5461316c565b5b60200101907effffffffffffffffffffffffffffffffffffffffffffffffffffffffffffff1916908160001a905350600a85611d91919061310a565b9450611d0f565b8093505050505b919050565b6000808273ffffffffffffffffffffffffffffffffffffffff163b119050919050565b828054611dd3906125b8565b90600052602060002090601f016020900481019282611df55760008555611e3c565b82601f10611e0e57805160ff1916838001178555611e3c565b82800160010185558215611e3c579182015b82811115611e3b578251825591602001919060010190611e20565b5b509050611e499190611e4d565b5090565b5b80821115611e66576000816000905550600101611e4e565b5090565b6000604051905090565b600080fd5b600080fd5b600073ffffffffffffffffffffffffffffffffffffffff82169050919050565b6000611ea982611e7e565b9050919050565b611eb981611e9e565b8114611ec457600080fd5b50565b600081359050611ed681611eb0565b92915050565b6000819050919050565b611eef81611edc565b8114611efa57600080fd5b50565b600081359050611f0c81611ee6565b92915050565b60008060408385031215611f2957611f28611e74565b5b6000611f3785828601611ec7565b9250506020611f4885828601611efd565b9150509250929050565b60007fffffffff0000000000000000000000000000000000000000000000000000000082169050919050565b611f8781611f52565b8114611f9257600080fd5b50565b600081359050611fa481611f7e565b92915050565b600060208284031215611fc057611fbf611e74565b5b6000611fce84828501611f95565b91505092915050565b60008115159050919050565b611fec81611fd7565b82525050565b60006020820190506120076000830184611fe3565b92915050565b600081519050919050565b600082825260208201905092915050565b60005b8381101561204757808201518184015260208101905061202c565b83811115612056576000848401525b50505050565b6000601f19601f8301169050919050565b60006120788261200d565b6120828185612018565b9350612092818560208601612029565b61209b8161205c565b840191505092915050565b600060208201905081810360008301526120c0818461206d565b905092915050565b6000602082840312156120de576120dd611e74565b5b60006120ec84828501611efd565b91505092915050565b6120fe81611e9e565b82525050565b600060208201905061211960008301846120f5565b92915050565b60008060006060848603121561213857612137611e74565b5b600061214686828701611ec7565b935050602061215786828701611ec7565b925050604061216886828701611efd565b9150509250925092565b61217b81611edc565b82525050565b60006020820190506121966000830184612172565b92915050565b6000602082840312156121b2576121b1611e74565b5b60006121c084828501611ec7565b91505092915050565b6121d281611fd7565b81146121dd57600080fd5b50565b6000813590506121ef816121c9565b92915050565b6000806040838503121561220c5761220b611e74565b5b600061221a85828601611ec7565b925050602061222b858286016121e0565b9150509250929050565b600080fd5b600080fd5b7f4e487b7100000000000000000000000000000000000000000000000000000000600052604160045260246000fd5b6122778261205c565b810181811067ffffffffffffffff821117156122965761229561223f565b5b80604052505050565b60006122a9611e6a565b90506122b5828261226e565b919050565b600067ffffffffffffffff8211156122d5576122d461223f565b5b6122de8261205c565b9050602081019050919050565b82818337600083830152505050565b600061230d612308846122ba565b61229f565b9050828152602081018484840111156123295761232861223a565b5b6123348482856122eb565b509392505050565b600082601f83011261235157612350612235565b5b81356123618482602086016122fa565b91505092915050565b6000806000806080858703121561238457612383611e74565b5b600061239287828801611ec7565b94505060206123a387828801611ec7565b93505060406123b487828801611efd565b925050606085013567ffffffffffffffff8111156123d5576123d4611e79565b5b6123e18782880161233c565b91505092959194509250565b6000806040838503121561240457612403611e74565b5b600061241285828601611ec7565b925050602061242385828601611ec7565b9150509250929050565b600067ffffffffffffffff8211156124485761244761223f565b5b6124518261205c565b9050602081019050919050565b600061247161246c8461242d565b61229f565b90508281526020810184848401111561248d5761248c61223a565b5b6124988482856122eb565b509392505050565b600082601f8301126124b5576124b4612235565b5b81356124c584826020860161245e565b91505092915050565b600080600080608085870312156124e8576124e7611e74565b5b600085013567ffffffffffffffff81111561250657612505611e79565b5b612512878288016124a0565b945050602061252387828801611efd565b935050604085013567ffffffffffffffff81111561254457612543611e79565b5b612550878288016124a0565b925050606085013567ffffffffffffffff81111561257157612570611e79565b5b61257d878288016124a0565b91505092959194509250565b7f4e487b7100000000000000000000000000000000000000000000000000000000600052602260045260246000fd5b600060028204905060018216806125d057607f821691505b6020821081036125e3576125e2612589565b5b50919050565b7f4552433732313a20617070726f76656420717565727920666f72206e6f6e657860008201527f697374656e7420746f6b656e0000000000000000000000000000000000000000602082015250565b6000612645602c83612018565b9150612650826125e9565b604082019050919050565b6000602082019050818103600083015261267481612638565b9050919050565b7f4552433732313a20617070726f76616c20746f2063757272656e74206f776e6560008201527f7200000000000000000000000000000000000000000000000000000000000000602082015250565b60006126d7602183612018565b91506126e28261267b565b604082019050919050565b60006020820190508181036000830152612706816126ca565b9050919050565b7f4552433732313a20617070726f76652063616c6c6572206973206e6f74206f7760008201527f6e6572206e6f7220617070726f76656420666f7220616c6c0000000000000000602082015250565b6000612769603883612018565b91506127748261270d565b604082019050919050565b600060208201905081810360008301526127988161275c565b9050919050565b7f4552433732313a207472616e736665722063616c6c6572206973206e6f74206f60008201527f776e6572206e6f7220617070726f766564000000000000000000000000000000602082015250565b60006127fb603183612018565b91506128068261279f565b604082019050919050565b6000602082019050818103600083015261282a816127ee565b9050919050565b7f4552433732313a206f776e657220717565727920666f72206e6f6e657869737460008201527f656e7420746f6b656e0000000000000000000000000000000000000000000000602082015250565b600061288d602983612018565b915061289882612831565b604082019050919050565b600060208201905081810360008301526128bc81612880565b9050919050565b7f4552433732313a2062616c616e636520717565727920666f7220746865207a6560008201527f726f206164647265737300000000000000000000000000000000000000000000602082015250565b600061291f602a83612018565b915061292a826128c3565b604082019050919050565b6000602082019050818103600083015261294e81612912565b9050919050565b7f45524337323155524953746f726167653a2055524920717565727920666f722060008201527f6e6f6e6578697374656e7420746f6b656e000000000000000000000000000000602082015250565b60006129b1603183612018565b91506129bc82612955565b604082019050919050565b600060208201905081810360008301526129e0816129a4565b9050919050565b600081905092915050565b60006129fd8261200d565b612a0781856129e7565b9350612a17818560208601612029565b80840191505092915050565b6000612a2f82856129f2565b9150612a3b82846129f2565b91508190509392505050565b7f4552433732313a207472616e736665722066726f6d20696e636f72726563742060008201527f6f776e6572000000000000000000000000000000000000000000000000000000602082015250565b6000612aa3602583612018565b9150612aae82612a47565b604082019050919050565b60006020820190508181036000830152612ad281612a96565b9050919050565b7f4552433732313a207472616e7366657220746f20746865207a65726f2061646460008201527f7265737300000000000000000000000000000000000000000000000000000000602082015250565b6000612b35602483612018565b9150612b4082612ad9565b604082019050919050565b60006020820190508181036000830152612b6481612b28565b9050919050565b7f4e487b7100000000000000000000000000000000000000000000000000000000600052601160045260246000fd5b6000612ba582611edc565b9150612bb083611edc565b925082821015612bc357612bc2612b6b565b5b828203905092915050565b6000612bd982611edc565b9150612be483611edc565b9250827fffffffffffffffffffffffffffffffffffffffffffffffffffffffffffffffff03821115612c1957612c18612b6b565b5b828201905092915050565b7f4552433732313a206f70657261746f7220717565727920666f72206e6f6e657860008201527f697374656e7420746f6b656e0000000000000000000000000000000000000000602082015250565b6000612c80602c83612018565b9150612c8b82612c24565b604082019050919050565b60006020820190508181036000830152612caf81612c73565b9050919050565b7f4552433732313a20617070726f766520746f2063616c6c657200000000000000600082015250565b6000612cec601983612018565b9150612cf782612cb6565b602082019050919050565b60006020820190508181036000830152612d1b81612cdf565b9050919050565b7f4552433732313a207472616e7366657220746f206e6f6e20455243373231526560008201527f63656976657220696d706c656d656e7465720000000000000000000000000000602082015250565b6000612d7e603283612018565b9150612d8982612d22565b604082019050919050565b60006020820190508181036000830152612dad81612d71565b9050919050565b7f4552433732314d657461646174613a2055524920717565727920666f72206e6f60008201527f6e6578697374656e7420746f6b656e0000000000000000000000000000000000602082015250565b6000612e10602f83612018565b9150612e1b82612db4565b604082019050919050565b60006020820190508181036000830152612e3f81612e03565b9050919050565b7f4552433732313a206d696e7420746f20746865207a65726f2061646472657373600082015250565b6000612e7c602083612018565b9150612e8782612e46565b602082019050919050565b60006020820190508181036000830152612eab81612e6f565b9050919050565b7f4552433732313a20746f6b656e20616c7265616479206d696e74656400000000600082015250565b6000612ee8601c83612018565b9150612ef382612eb2565b602082019050919050565b60006020820190508181036000830152612f1781612edb565b9050919050565b7f45524337323155524953746f726167653a2055524920736574206f66206e6f6e60008201527f6578697374656e7420746f6b656e000000000000000000000000000000000000602082015250565b6000612f7a602e83612018565b9150612f8582612f1e565b604082019050919050565b60006020820190508181036000830152612fa981612f6d565b9050919050565b600081519050919050565b600082825260208201905092915050565b6000612fd782612fb0565b612fe18185612fbb565b9350612ff1818560208601612029565b612ffa8161205c565b840191505092915050565b600060808201905061301a60008301876120f5565b61302760208301866120f5565b6130346040830185612172565b81810360608301526130468184612fcc565b905095945050505050565b60008151905061306081611f7e565b92915050565b60006020828403121561307c5761307b611e74565b5b600061308a84828501613051565b91505092915050565b600061309e82611edc565b91507fffffffffffffffffffffffffffffffffffffffffffffffffffffffffffffffff82036130d0576130cf612b6b565b5b600182019050919050565b7f4e487b7100000000000000000000000000000000000000000000000000000000600052601260045260246000fd5b600061311582611edc565b915061312083611edc565b9250826131305761312f6130db565b5b828204905092915050565b600061314682611edc565b915061315183611edc565b925082613161576131606130db565b5b828206905092915050565b7f4e487b7100000000000000000000000000000000000000000000000000000000600052603260045260246000fdfea26469706673582212204eff858be3f9b362a5b3d5401e770de257099305ecf6c42cb4d1e7872722f59b64736f6c634300080e0033",
  "immutableReferences": {},
  "source": "pragma solidity 0.8.14;\n\nimport \"@openzeppelin/contracts/token/ERC721/extensions/ERC721URIStorage.sol\";\nimport \"@openzeppelin/contracts/utils/Counters.sol\";\n\ncontract Demo is ERC721URIStorage {\n  using Counters for Counters.Counter;\n\nCounters.Counter public tokenID_Counter;\naddress private owner;    \n\n    struct nftDetails {\n    string nft_name;\n    uint256 price;\n    string category;\n    string url;\n    address nft_owner;\n    }\n\n    mapping ( uint256 => nftDetails ) private track_details;\n\n\n    constructor() ERC721(\"Finverse Capital Regular NFT\", \"FCRN\") {\n        owner = msg.sender;\n    }\n\n    function mint(string memory tokenURI, uint256 _price, string memory _name, string memory _category) public {\n        //require(!fins[data], \"Already Minted\");\n        uint256 id = tokenID_Counter.current();\n        tokenID_Counter.increment();\n        Counters.increment;\n        _mint(msg.sender, id);\n        _setTokenURI(id, tokenURI);\n        track_details[id] = nftDetails({\n            nft_name: _name,\n            price: _price,\n            category: _category,\n            url: tokenURI,\n            nft_owner: msg.sender\n            });\n    }\n\n    \n    function total_nfts() public view returns(uint256) {\n        return tokenID_Counter.current();\n    }\n\n    function check_id(uint256 id) public view returns(bool) {\n        return _exists(id);\n    }\n\n    function get_name(uint256 id) public view returns(string memory) {\n        return track_details[id].nft_name;\n    }    \n\n    function get_price(uint256 id) public view returns(uint256) {\n        return track_details[id].price;\n    }\n\n    function get_owner(uint256 id) public view returns(address) {\n        return track_details[id].nft_owner;\n    }\n\n    function get_category(uint256 id) public view returns(string memory) {\n        return track_details[id].category;\n    }\n\n    function transferFrom(address from, uint256 id) public payable {\n        super._transfer(from, msg.sender, id);\n        payable(from).transfer(msg.value);\n    }\n\n    function burnNFT(uint256 id) private {\n        _burn(id);\n        delete track_details[id];    \n    }\n\n}",
  "sourcePath": "/home/lone/Programming-Stuff/BlockchainProjects/demo-mint-app/src/contracts/Demo.sol",
  "compiler": {
    "name": "solc",
    "version": "0.8.14+commit.80d49f37.Emscripten.clang"
  },
  "schemaVersion": "3.4.7",
  "updatedAt": "2022-06-09T18:21:48.279Z",
  "networkType": "ethereum",
  "devdoc": {
    "kind": "dev",
    "methods": {
      "approve(address,uint256)": {
        "details": "See {IERC721-approve}."
      },
      "balanceOf(address)": {
        "details": "See {IERC721-balanceOf}."
      },
      "getApproved(uint256)": {
        "details": "See {IERC721-getApproved}."
      },
      "isApprovedForAll(address,address)": {
        "details": "See {IERC721-isApprovedForAll}."
      },
      "name()": {
        "details": "See {IERC721Metadata-name}."
      },
      "ownerOf(uint256)": {
        "details": "See {IERC721-ownerOf}."
      },
      "safeTransferFrom(address,address,uint256)": {
        "details": "See {IERC721-safeTransferFrom}."
      },
      "safeTransferFrom(address,address,uint256,bytes)": {
        "details": "See {IERC721-safeTransferFrom}."
      },
      "setApprovalForAll(address,bool)": {
        "details": "See {IERC721-setApprovalForAll}."
      },
      "supportsInterface(bytes4)": {
        "details": "See {IERC165-supportsInterface}."
      },
      "symbol()": {
        "details": "See {IERC721Metadata-symbol}."
      },
      "tokenURI(uint256)": {
        "details": "See {IERC721Metadata-tokenURI}."
      },
      "transferFrom(address,address,uint256)": {
        "details": "See {IERC721-transferFrom}."
      }
    },
    "version": 1
  },
  "userdoc": {
    "kind": "user",
    "methods": {},
    "version": 1
  }
}